{"contracts/WhitelistHook.sol":{"WhitelistHook":{"abi":[{"inputs":[],"name":"UnauthorizedAttester","type":"error"},{"inputs":[{"internalType":"address","name":"attester","type":"address"},{"internalType":"uint64","name":"","type":"uint64"},{"internalType":"uint64","name":"","type":"uint64"},{"internalType":"bytes","name":"","type":"bytes"}],"name":"didReceiveAttestation","outputs":[],"stateMutability":"payable","type":"function"},{"inputs":[{"internalType":"address","name":"attester","type":"address"},{"internalType":"uint64","name":"","type":"uint64"},{"internalType":"uint64","name":"","type":"uint64"},{"internalType":"contract IERC20","name":"","type":"address"},{"internalType":"uint256","name":"","type":"uint256"},{"internalType":"bytes","name":"","type":"bytes"}],"name":"didReceiveAttestation","outputs":[],"stateMutability":"view","type":"function"},{"inputs":[{"internalType":"address","name":"attester","type":"address"},{"internalType":"uint64","name":"","type":"uint64"},{"internalType":"uint64","name":"","type":"uint64"},{"internalType":"bytes","name":"","type":"bytes"}],"name":"didReceiveRevocation","outputs":[],"stateMutability":"payable","type":"function"},{"inputs":[{"internalType":"address","name":"attester","type":"address"},{"internalType":"uint64","name":"","type":"uint64"},{"internalType":"uint64","name":"","type":"uint64"},{"internalType":"contract IERC20","name":"","type":"address"},{"internalType":"uint256","name":"","type":"uint256"},{"internalType":"bytes","name":"","type":"bytes"}],"name":"didReceiveRevocation","outputs":[],"stateMutability":"view","type":"function"},{"inputs":[{"internalType":"address","name":"attester","type":"address"},{"internalType":"bool","name":"allowed","type":"bool"}],"name":"setWhitelist","outputs":[],"stateMutability":"nonpayable","type":"function"},{"inputs":[{"internalType":"address","name":"","type":"address"}],"name":"whitelist","outputs":[{"internalType":"bool","name":"","type":"bool"}],"stateMutability":"view","type":"function"}],"evm":{"bytecode":{"linkReferences":{},"object":"6080604052348015600f57600080fd5b506106518061001f6000396000f3fe6080604052600436106100555760003560e01c80633398b4ed1461005a5780634466507a1461007657806353d6fd591461009f5780639b19251a146100c8578063e33361f414610105578063e830b5c714610121575b600080fd5b610074600480360381019061006f91906103a1565b61014a565b005b34801561008257600080fd5b5061009d6004803603810190610098919061049d565b61015a565b005b3480156100ab57600080fd5b506100c660048036038101906100c19190610584565b61016c565b005b3480156100d457600080fd5b506100ef60048036038101906100ea91906105c4565b6101c6565b6040516100fc9190610600565b60405180910390f35b61011f600480360381019061011a91906103a1565b6101e6565b005b34801561012d57600080fd5b506101486004803603810190610143919061049d565b6101f6565b005b61015385610208565b5050505050565b61016387610208565b50505050505050565b806000808473ffffffffffffffffffffffffffffffffffffffff1673ffffffffffffffffffffffffffffffffffffffff16815260200190815260200160002060006101000a81548160ff0219169083151502179055505050565b60006020528060005260406000206000915054906101000a900460ff1681565b6101ef85610208565b5050505050565b6101ff87610208565b50505050505050565b600015156000808373ffffffffffffffffffffffffffffffffffffffff1673ffffffffffffffffffffffffffffffffffffffff16815260200190815260200160002060009054906101000a900460ff16151503610291576040517f87aee99200000000000000000000000000000000000000000000000000000000815260040160405180910390fd5b50565b600080fd5b600080fd5b600073ffffffffffffffffffffffffffffffffffffffff82169050919050565b60006102c98261029e565b9050919050565b6102d9816102be565b81146102e457600080fd5b50565b6000813590506102f6816102d0565b92915050565b600067ffffffffffffffff82169050919050565b610319816102fc565b811461032457600080fd5b50565b60008135905061033681610310565b92915050565b600080fd5b600080fd5b600080fd5b60008083601f8401126103615761036061033c565b5b8235905067ffffffffffffffff81111561037e5761037d610341565b5b60208301915083600182028301111561039a57610399610346565b5b9250929050565b6000806000806000608086880312156103bd576103bc610294565b5b60006103cb888289016102e7565b95505060206103dc88828901610327565b94505060406103ed88828901610327565b935050606086013567ffffffffffffffff81111561040e5761040d610299565b5b61041a8882890161034b565b92509250509295509295909350565b6000610434826102be565b9050919050565b61044481610429565b811461044f57600080fd5b50565b6000813590506104618161043b565b92915050565b6000819050919050565b61047a81610467565b811461048557600080fd5b50565b60008135905061049781610471565b92915050565b600080600080600080600060c0888a0312156104bc576104bb610294565b5b60006104ca8a828b016102e7565b97505060206104db8a828b01610327565b96505060406104ec8a828b01610327565b95505060606104fd8a828b01610452565b945050608061050e8a828b01610488565b93505060a088013567ffffffffffffffff81111561052f5761052e610299565b5b61053b8a828b0161034b565b925092505092959891949750929550565b60008115159050919050565b6105618161054c565b811461056c57600080fd5b50565b60008135905061057e81610558565b92915050565b6000806040838503121561059b5761059a610294565b5b60006105a9858286016102e7565b92505060206105ba8582860161056f565b9150509250929050565b6000602082840312156105da576105d9610294565b5b60006105e8848285016102e7565b91505092915050565b6105fa8161054c565b82525050565b600060208201905061061560008301846105f1565b9291505056fea2646970667358221220d9a9058458911cd16f2867ba87816d7d6f7860e43f08d606952ea063ad11f78364736f6c634300081a0033","opcodes":"PUSH1 0x80 PUSH1 0x40 MSTORE CALLVALUE DUP1 ISZERO PUSH1 0xF JUMPI PUSH1 0x0 DUP1 REVERT JUMPDEST POP PUSH2 0x651 DUP1 PUSH2 0x1F PUSH1 0x0 CODECOPY PUSH1 0x0 RETURN INVALID PUSH1 0x80 PUSH1 0x40 MSTORE PUSH1 0x4 CALLDATASIZE LT PUSH2 0x55 JUMPI PUSH1 0x0 CALLDATALOAD PUSH1 0xE0 SHR DUP1 PUSH4 0x3398B4ED EQ PUSH2 0x5A JUMPI DUP1 PUSH4 0x4466507A EQ PUSH2 0x76 JUMPI DUP1 PUSH4 0x53D6FD59 EQ PUSH2 0x9F JUMPI DUP1 PUSH4 0x9B19251A EQ PUSH2 0xC8 JUMPI DUP1 PUSH4 0xE33361F4 EQ PUSH2 0x105 JUMPI DUP1 PUSH4 0xE830B5C7 EQ PUSH2 0x121 JUMPI JUMPDEST PUSH1 0x0 DUP1 REVERT JUMPDEST PUSH2 0x74 PUSH1 0x4 DUP1 CALLDATASIZE SUB DUP2 ADD SWAP1 PUSH2 0x6F SWAP2 SWAP1 PUSH2 0x3A1 JUMP JUMPDEST PUSH2 0x14A JUMP JUMPDEST STOP JUMPDEST CALLVALUE DUP1 ISZERO PUSH2 0x82 JUMPI PUSH1 0x0 DUP1 REVERT JUMPDEST POP PUSH2 0x9D PUSH1 0x4 DUP1 CALLDATASIZE SUB DUP2 ADD SWAP1 PUSH2 0x98 SWAP2 SWAP1 PUSH2 0x49D JUMP JUMPDEST PUSH2 0x15A JUMP JUMPDEST STOP JUMPDEST CALLVALUE DUP1 ISZERO PUSH2 0xAB JUMPI PUSH1 0x0 DUP1 REVERT JUMPDEST POP PUSH2 0xC6 PUSH1 0x4 DUP1 CALLDATASIZE SUB DUP2 ADD SWAP1 PUSH2 0xC1 SWAP2 SWAP1 PUSH2 0x584 JUMP JUMPDEST PUSH2 0x16C JUMP JUMPDEST STOP JUMPDEST CALLVALUE DUP1 ISZERO PUSH2 0xD4 JUMPI PUSH1 0x0 DUP1 REVERT JUMPDEST POP PUSH2 0xEF PUSH1 0x4 DUP1 CALLDATASIZE SUB DUP2 ADD SWAP1 PUSH2 0xEA SWAP2 SWAP1 PUSH2 0x5C4 JUMP JUMPDEST PUSH2 0x1C6 JUMP JUMPDEST PUSH1 0x40 MLOAD PUSH2 0xFC SWAP2 SWAP1 PUSH2 0x600 JUMP JUMPDEST PUSH1 0x40 MLOAD DUP1 SWAP2 SUB SWAP1 RETURN JUMPDEST PUSH2 0x11F PUSH1 0x4 DUP1 CALLDATASIZE SUB DUP2 ADD SWAP1 PUSH2 0x11A SWAP2 SWAP1 PUSH2 0x3A1 JUMP JUMPDEST PUSH2 0x1E6 JUMP JUMPDEST STOP JUMPDEST CALLVALUE DUP1 ISZERO PUSH2 0x12D JUMPI PUSH1 0x0 DUP1 REVERT JUMPDEST POP PUSH2 0x148 PUSH1 0x4 DUP1 CALLDATASIZE SUB DUP2 ADD SWAP1 PUSH2 0x143 SWAP2 SWAP1 PUSH2 0x49D JUMP JUMPDEST PUSH2 0x1F6 JUMP JUMPDEST STOP JUMPDEST PUSH2 0x153 DUP6 PUSH2 0x208 JUMP JUMPDEST POP POP POP POP POP JUMP JUMPDEST PUSH2 0x163 DUP8 PUSH2 0x208 JUMP JUMPDEST POP POP POP POP POP POP POP JUMP JUMPDEST DUP1 PUSH1 0x0 DUP1 DUP5 PUSH20 0xFFFFFFFFFFFFFFFFFFFFFFFFFFFFFFFFFFFFFFFF AND PUSH20 0xFFFFFFFFFFFFFFFFFFFFFFFFFFFFFFFFFFFFFFFF AND DUP2 MSTORE PUSH1 0x20 ADD SWAP1 DUP2 MSTORE PUSH1 0x20 ADD PUSH1 0x0 KECCAK256 PUSH1 0x0 PUSH2 0x100 EXP DUP2 SLOAD DUP2 PUSH1 0xFF MUL NOT AND SWAP1 DUP4 ISZERO ISZERO MUL OR SWAP1 SSTORE POP POP POP JUMP JUMPDEST PUSH1 0x0 PUSH1 0x20 MSTORE DUP1 PUSH1 0x0 MSTORE PUSH1 0x40 PUSH1 0x0 KECCAK256 PUSH1 0x0 SWAP2 POP SLOAD SWAP1 PUSH2 0x100 EXP SWAP1 DIV PUSH1 0xFF AND DUP2 JUMP JUMPDEST PUSH2 0x1EF DUP6 PUSH2 0x208 JUMP JUMPDEST POP POP POP POP POP JUMP JUMPDEST PUSH2 0x1FF DUP8 PUSH2 0x208 JUMP JUMPDEST POP POP POP POP POP POP POP JUMP JUMPDEST PUSH1 0x0 ISZERO ISZERO PUSH1 0x0 DUP1 DUP4 PUSH20 0xFFFFFFFFFFFFFFFFFFFFFFFFFFFFFFFFFFFFFFFF AND PUSH20 0xFFFFFFFFFFFFFFFFFFFFFFFFFFFFFFFFFFFFFFFF AND DUP2 MSTORE PUSH1 0x20 ADD SWAP1 DUP2 MSTORE PUSH1 0x20 ADD PUSH1 0x0 KECCAK256 PUSH1 0x0 SWAP1 SLOAD SWAP1 PUSH2 0x100 EXP SWAP1 DIV PUSH1 0xFF AND ISZERO ISZERO SUB PUSH2 0x291 JUMPI PUSH1 0x40 MLOAD PUSH32 0x87AEE99200000000000000000000000000000000000000000000000000000000 DUP2 MSTORE PUSH1 0x4 ADD PUSH1 0x40 MLOAD DUP1 SWAP2 SUB SWAP1 REVERT JUMPDEST POP JUMP JUMPDEST PUSH1 0x0 DUP1 REVERT JUMPDEST PUSH1 0x0 DUP1 REVERT JUMPDEST PUSH1 0x0 PUSH20 0xFFFFFFFFFFFFFFFFFFFFFFFFFFFFFFFFFFFFFFFF DUP3 AND SWAP1 POP SWAP2 SWAP1 POP JUMP JUMPDEST PUSH1 0x0 PUSH2 0x2C9 DUP3 PUSH2 0x29E JUMP JUMPDEST SWAP1 POP SWAP2 SWAP1 POP JUMP JUMPDEST PUSH2 0x2D9 DUP2 PUSH2 0x2BE JUMP JUMPDEST DUP2 EQ PUSH2 0x2E4 JUMPI PUSH1 0x0 DUP1 REVERT JUMPDEST POP JUMP JUMPDEST PUSH1 0x0 DUP2 CALLDATALOAD SWAP1 POP PUSH2 0x2F6 DUP2 PUSH2 0x2D0 JUMP JUMPDEST SWAP3 SWAP2 POP POP JUMP JUMPDEST PUSH1 0x0 PUSH8 0xFFFFFFFFFFFFFFFF DUP3 AND SWAP1 POP SWAP2 SWAP1 POP JUMP JUMPDEST PUSH2 0x319 DUP2 PUSH2 0x2FC JUMP JUMPDEST DUP2 EQ PUSH2 0x324 JUMPI PUSH1 0x0 DUP1 REVERT JUMPDEST POP JUMP JUMPDEST PUSH1 0x0 DUP2 CALLDATALOAD SWAP1 POP PUSH2 0x336 DUP2 PUSH2 0x310 JUMP JUMPDEST SWAP3 SWAP2 POP POP JUMP JUMPDEST PUSH1 0x0 DUP1 REVERT JUMPDEST PUSH1 0x0 DUP1 REVERT JUMPDEST PUSH1 0x0 DUP1 REVERT JUMPDEST PUSH1 0x0 DUP1 DUP4 PUSH1 0x1F DUP5 ADD SLT PUSH2 0x361 JUMPI PUSH2 0x360 PUSH2 0x33C JUMP JUMPDEST JUMPDEST DUP3 CALLDATALOAD SWAP1 POP PUSH8 0xFFFFFFFFFFFFFFFF DUP2 GT ISZERO PUSH2 0x37E JUMPI PUSH2 0x37D PUSH2 0x341 JUMP JUMPDEST JUMPDEST PUSH1 0x20 DUP4 ADD SWAP2 POP DUP4 PUSH1 0x1 DUP3 MUL DUP4 ADD GT ISZERO PUSH2 0x39A JUMPI PUSH2 0x399 PUSH2 0x346 JUMP JUMPDEST JUMPDEST SWAP3 POP SWAP3 SWAP1 POP JUMP JUMPDEST PUSH1 0x0 DUP1 PUSH1 0x0 DUP1 PUSH1 0x0 PUSH1 0x80 DUP7 DUP9 SUB SLT ISZERO PUSH2 0x3BD JUMPI PUSH2 0x3BC PUSH2 0x294 JUMP JUMPDEST JUMPDEST PUSH1 0x0 PUSH2 0x3CB DUP9 DUP3 DUP10 ADD PUSH2 0x2E7 JUMP JUMPDEST SWAP6 POP POP PUSH1 0x20 PUSH2 0x3DC DUP9 DUP3 DUP10 ADD PUSH2 0x327 JUMP JUMPDEST SWAP5 POP POP PUSH1 0x40 PUSH2 0x3ED DUP9 DUP3 DUP10 ADD PUSH2 0x327 JUMP JUMPDEST SWAP4 POP POP PUSH1 0x60 DUP7 ADD CALLDATALOAD PUSH8 0xFFFFFFFFFFFFFFFF DUP2 GT ISZERO PUSH2 0x40E JUMPI PUSH2 0x40D PUSH2 0x299 JUMP JUMPDEST JUMPDEST PUSH2 0x41A DUP9 DUP3 DUP10 ADD PUSH2 0x34B JUMP JUMPDEST SWAP3 POP SWAP3 POP POP SWAP3 SWAP6 POP SWAP3 SWAP6 SWAP1 SWAP4 POP JUMP JUMPDEST PUSH1 0x0 PUSH2 0x434 DUP3 PUSH2 0x2BE JUMP JUMPDEST SWAP1 POP SWAP2 SWAP1 POP JUMP JUMPDEST PUSH2 0x444 DUP2 PUSH2 0x429 JUMP JUMPDEST DUP2 EQ PUSH2 0x44F JUMPI PUSH1 0x0 DUP1 REVERT JUMPDEST POP JUMP JUMPDEST PUSH1 0x0 DUP2 CALLDATALOAD SWAP1 POP PUSH2 0x461 DUP2 PUSH2 0x43B JUMP JUMPDEST SWAP3 SWAP2 POP POP JUMP JUMPDEST PUSH1 0x0 DUP2 SWAP1 POP SWAP2 SWAP1 POP JUMP JUMPDEST PUSH2 0x47A DUP2 PUSH2 0x467 JUMP JUMPDEST DUP2 EQ PUSH2 0x485 JUMPI PUSH1 0x0 DUP1 REVERT JUMPDEST POP JUMP JUMPDEST PUSH1 0x0 DUP2 CALLDATALOAD SWAP1 POP PUSH2 0x497 DUP2 PUSH2 0x471 JUMP JUMPDEST SWAP3 SWAP2 POP POP JUMP JUMPDEST PUSH1 0x0 DUP1 PUSH1 0x0 DUP1 PUSH1 0x0 DUP1 PUSH1 0x0 PUSH1 0xC0 DUP9 DUP11 SUB SLT ISZERO PUSH2 0x4BC JUMPI PUSH2 0x4BB PUSH2 0x294 JUMP JUMPDEST JUMPDEST PUSH1 0x0 PUSH2 0x4CA DUP11 DUP3 DUP12 ADD PUSH2 0x2E7 JUMP JUMPDEST SWAP8 POP POP PUSH1 0x20 PUSH2 0x4DB DUP11 DUP3 DUP12 ADD PUSH2 0x327 JUMP JUMPDEST SWAP7 POP POP PUSH1 0x40 PUSH2 0x4EC DUP11 DUP3 DUP12 ADD PUSH2 0x327 JUMP JUMPDEST SWAP6 POP POP PUSH1 0x60 PUSH2 0x4FD DUP11 DUP3 DUP12 ADD PUSH2 0x452 JUMP JUMPDEST SWAP5 POP POP PUSH1 0x80 PUSH2 0x50E DUP11 DUP3 DUP12 ADD PUSH2 0x488 JUMP JUMPDEST SWAP4 POP POP PUSH1 0xA0 DUP9 ADD CALLDATALOAD PUSH8 0xFFFFFFFFFFFFFFFF DUP2 GT ISZERO PUSH2 0x52F JUMPI PUSH2 0x52E PUSH2 0x299 JUMP JUMPDEST JUMPDEST PUSH2 0x53B DUP11 DUP3 DUP12 ADD PUSH2 0x34B JUMP JUMPDEST SWAP3 POP SWAP3 POP POP SWAP3 SWAP6 SWAP9 SWAP2 SWAP5 SWAP8 POP SWAP3 SWAP6 POP JUMP JUMPDEST PUSH1 0x0 DUP2 ISZERO ISZERO SWAP1 POP SWAP2 SWAP1 POP JUMP JUMPDEST PUSH2 0x561 DUP2 PUSH2 0x54C JUMP JUMPDEST DUP2 EQ PUSH2 0x56C JUMPI PUSH1 0x0 DUP1 REVERT JUMPDEST POP JUMP JUMPDEST PUSH1 0x0 DUP2 CALLDATALOAD SWAP1 POP PUSH2 0x57E DUP2 PUSH2 0x558 JUMP JUMPDEST SWAP3 SWAP2 POP POP JUMP JUMPDEST PUSH1 0x0 DUP1 PUSH1 0x40 DUP4 DUP6 SUB SLT ISZERO PUSH2 0x59B JUMPI PUSH2 0x59A PUSH2 0x294 JUMP JUMPDEST JUMPDEST PUSH1 0x0 PUSH2 0x5A9 DUP6 DUP3 DUP7 ADD PUSH2 0x2E7 JUMP JUMPDEST SWAP3 POP POP PUSH1 0x20 PUSH2 0x5BA DUP6 DUP3 DUP7 ADD PUSH2 0x56F JUMP JUMPDEST SWAP2 POP POP SWAP3 POP SWAP3 SWAP1 POP JUMP JUMPDEST PUSH1 0x0 PUSH1 0x20 DUP3 DUP5 SUB SLT ISZERO PUSH2 0x5DA JUMPI PUSH2 0x5D9 PUSH2 0x294 JUMP JUMPDEST JUMPDEST PUSH1 0x0 PUSH2 0x5E8 DUP5 DUP3 DUP6 ADD PUSH2 0x2E7 JUMP JUMPDEST SWAP2 POP POP SWAP3 SWAP2 POP POP JUMP JUMPDEST PUSH2 0x5FA DUP2 PUSH2 0x54C JUMP JUMPDEST DUP3 MSTORE POP POP JUMP JUMPDEST PUSH1 0x0 PUSH1 0x20 DUP3 ADD SWAP1 POP PUSH2 0x615 PUSH1 0x0 DUP4 ADD DUP5 PUSH2 0x5F1 JUMP JUMPDEST SWAP3 SWAP2 POP POP JUMP INVALID LOG2 PUSH5 0x6970667358 0x22 SLT KECCAK256 0xD9 0xA9 SDIV DUP5 PC SWAP2 SHR 0xD1 PUSH16 0x2867BA87816D7D6F7860E43F08D60695 0x2E LOG0 PUSH4 0xAD11F783 PUSH5 0x736F6C6343 STOP ADDMOD BYTE STOP CALLER "},"methodIdentifiers":{"didReceiveAttestation(address,uint64,uint64,address,uint256,bytes)":"4466507a","didReceiveAttestation(address,uint64,uint64,bytes)":"3398b4ed","didReceiveRevocation(address,uint64,uint64,address,uint256,bytes)":"e830b5c7","didReceiveRevocation(address,uint64,uint64,bytes)":"e33361f4","setWhitelist(address,bool)":"53d6fd59","whitelist(address)":"9b19251a"}}}}}