{
  "_format": "hh-sol-artifact-1",
  "contractName": "WhitelistHook",
  "sourceName": "contracts/WhitelistHook.sol",
  "abi": [
    {
      "inputs": [],
      "stateMutability": "nonpayable",
      "type": "constructor"
    },
    {
      "inputs": [],
      "name": "UnauthorizedAttester",
      "type": "error"
    },
    {
      "inputs": [
        {
          "internalType": "address",
          "name": "attester",
          "type": "address"
        },
        {
          "internalType": "uint64",
          "name": "",
          "type": "uint64"
        },
        {
          "internalType": "uint64",
          "name": "",
          "type": "uint64"
        },
        {
          "internalType": "bytes",
          "name": "",
          "type": "bytes"
        }
      ],
      "name": "didReceiveAttestation",
      "outputs": [],
      "stateMutability": "payable",
      "type": "function"
    },
    {
      "inputs": [
        {
          "internalType": "address",
          "name": "attester",
          "type": "address"
        },
        {
          "internalType": "uint64",
          "name": "",
          "type": "uint64"
        },
        {
          "internalType": "uint64",
          "name": "",
          "type": "uint64"
        },
        {
          "internalType": "contract IERC20",
          "name": "",
          "type": "address"
        },
        {
          "internalType": "uint256",
          "name": "",
          "type": "uint256"
        },
        {
          "internalType": "bytes",
          "name": "",
          "type": "bytes"
        }
      ],
      "name": "didReceiveAttestation",
      "outputs": [],
      "stateMutability": "view",
      "type": "function"
    },
    {
      "inputs": [
        {
          "internalType": "address",
          "name": "attester",
          "type": "address"
        },
        {
          "internalType": "uint64",
          "name": "",
          "type": "uint64"
        },
        {
          "internalType": "uint64",
          "name": "",
          "type": "uint64"
        },
        {
          "internalType": "bytes",
          "name": "",
          "type": "bytes"
        }
      ],
      "name": "didReceiveRevocation",
      "outputs": [],
      "stateMutability": "payable",
      "type": "function"
    },
    {
      "inputs": [
        {
          "internalType": "address",
          "name": "attester",
          "type": "address"
        },
        {
          "internalType": "uint64",
          "name": "",
          "type": "uint64"
        },
        {
          "internalType": "uint64",
          "name": "",
          "type": "uint64"
        },
        {
          "internalType": "contract IERC20",
          "name": "",
          "type": "address"
        },
        {
          "internalType": "uint256",
          "name": "",
          "type": "uint256"
        },
        {
          "internalType": "bytes",
          "name": "",
          "type": "bytes"
        }
      ],
      "name": "didReceiveRevocation",
      "outputs": [],
      "stateMutability": "view",
      "type": "function"
    },
    {
      "inputs": [
        {
          "internalType": "address",
          "name": "attester",
          "type": "address"
        },
        {
          "internalType": "bool",
          "name": "allowed",
          "type": "bool"
        }
      ],
      "name": "setWhitelist",
      "outputs": [],
      "stateMutability": "nonpayable",
      "type": "function"
    },
    {
      "inputs": [
        {
          "internalType": "address",
          "name": "",
          "type": "address"
        }
      ],
      "name": "whitelist",
      "outputs": [
        {
          "internalType": "bool",
          "name": "",
          "type": "bool"
        }
      ],
      "stateMutability": "view",
      "type": "function"
    }
  ],
  "bytecode": "0x6080604052348015600f57600080fd5b506106518061001f6000396000f3fe6080604052600436106100555760003560e01c80633398b4ed1461005a5780634466507a1461007657806353d6fd591461009f5780639b19251a146100c8578063e33361f414610105578063e830b5c714610121575b600080fd5b610074600480360381019061006f91906103a1565b61014a565b005b34801561008257600080fd5b5061009d6004803603810190610098919061049d565b61015a565b005b3480156100ab57600080fd5b506100c660048036038101906100c19190610584565b61016c565b005b3480156100d457600080fd5b506100ef60048036038101906100ea91906105c4565b6101c6565b6040516100fc9190610600565b60405180910390f35b61011f600480360381019061011a91906103a1565b6101e6565b005b34801561012d57600080fd5b506101486004803603810190610143919061049d565b6101f6565b005b61015385610208565b5050505050565b61016387610208565b50505050505050565b806000808473ffffffffffffffffffffffffffffffffffffffff1673ffffffffffffffffffffffffffffffffffffffff16815260200190815260200160002060006101000a81548160ff0219169083151502179055505050565b60006020528060005260406000206000915054906101000a900460ff1681565b6101ef85610208565b5050505050565b6101ff87610208565b50505050505050565b600015156000808373ffffffffffffffffffffffffffffffffffffffff1673ffffffffffffffffffffffffffffffffffffffff16815260200190815260200160002060009054906101000a900460ff16151503610291576040517f87aee99200000000000000000000000000000000000000000000000000000000815260040160405180910390fd5b50565b600080fd5b600080fd5b600073ffffffffffffffffffffffffffffffffffffffff82169050919050565b60006102c98261029e565b9050919050565b6102d9816102be565b81146102e457600080fd5b50565b6000813590506102f6816102d0565b92915050565b600067ffffffffffffffff82169050919050565b610319816102fc565b811461032457600080fd5b50565b60008135905061033681610310565b92915050565b600080fd5b600080fd5b600080fd5b60008083601f8401126103615761036061033c565b5b8235905067ffffffffffffffff81111561037e5761037d610341565b5b60208301915083600182028301111561039a57610399610346565b5b9250929050565b6000806000806000608086880312156103bd576103bc610294565b5b60006103cb888289016102e7565b95505060206103dc88828901610327565b94505060406103ed88828901610327565b935050606086013567ffffffffffffffff81111561040e5761040d610299565b5b61041a8882890161034b565b92509250509295509295909350565b6000610434826102be565b9050919050565b61044481610429565b811461044f57600080fd5b50565b6000813590506104618161043b565b92915050565b6000819050919050565b61047a81610467565b811461048557600080fd5b50565b60008135905061049781610471565b92915050565b600080600080600080600060c0888a0312156104bc576104bb610294565b5b60006104ca8a828b016102e7565b97505060206104db8a828b01610327565b96505060406104ec8a828b01610327565b95505060606104fd8a828b01610452565b945050608061050e8a828b01610488565b93505060a088013567ffffffffffffffff81111561052f5761052e610299565b5b61053b8a828b0161034b565b925092505092959891949750929550565b60008115159050919050565b6105618161054c565b811461056c57600080fd5b50565b60008135905061057e81610558565b92915050565b6000806040838503121561059b5761059a610294565b5b60006105a9858286016102e7565b92505060206105ba8582860161056f565b9150509250929050565b6000602082840312156105da576105d9610294565b5b60006105e8848285016102e7565b91505092915050565b6105fa8161054c565b82525050565b600060208201905061061560008301846105f1565b9291505056fea2646970667358221220dce49fb20d254e90a43bf1f69a69c06cb5519635c90766c03f7b570b878ff36c64736f6c634300081a0033",
  "linkReferences": {},
  "deployedLinkReferences": {}
}